{
  "contractName": "IICO",
  "abi": [
    {
      "constant": false,
      "inputs": [
        {
          "name": "_maxIt",
          "type": "uint256"
        }
      ],
      "name": "finalize",
      "outputs": [],
      "payable": false,
      "stateMutability": "nonpayable",
      "type": "function"
    },
    {
      "constant": true,
      "inputs": [],
      "name": "tokensForSale",
      "outputs": [
        {
          "name": "",
          "type": "uint256"
        }
      ],
      "payable": false,
      "stateMutability": "view",
      "type": "function"
    },
    {
      "constant": false,
      "inputs": [
        {
          "name": "_token",
          "type": "address"
        }
      ],
      "name": "setToken",
      "outputs": [],
      "payable": false,
      "stateMutability": "nonpayable",
      "type": "function"
    },
    {
      "constant": true,
      "inputs": [],
      "name": "sumAcceptedVirtualContrib",
      "outputs": [
        {
          "name": "",
          "type": "uint256"
        }
      ],
      "payable": false,
      "stateMutability": "view",
      "type": "function"
    },
    {
      "constant": true,
      "inputs": [],
      "name": "cutOffBidID",
      "outputs": [
        {
          "name": "",
          "type": "uint256"
        }
      ],
      "payable": false,
      "stateMutability": "view",
      "type": "function"
    },
    {
      "constant": true,
      "inputs": [
        {
          "name": "",
          "type": "address"
        },
        {
          "name": "",
          "type": "uint256"
        }
      ],
      "name": "contributorBidIDs",
      "outputs": [
        {
          "name": "",
          "type": "uint256"
        }
      ],
      "payable": false,
      "stateMutability": "view",
      "type": "function"
    },
    {
      "constant": false,
      "inputs": [
        {
          "name": "_bidID",
          "type": "uint256"
        }
      ],
      "name": "withdraw",
      "outputs": [],
      "payable": false,
      "stateMutability": "nonpayable",
      "type": "function"
    },
    {
      "constant": true,
      "inputs": [],
      "name": "endTime",
      "outputs": [
        {
          "name": "",
          "type": "uint256"
        }
      ],
      "payable": false,
      "stateMutability": "view",
      "type": "function"
    },
    {
      "constant": true,
      "inputs": [],
      "name": "withdrawalLockTime",
      "outputs": [
        {
          "name": "",
          "type": "uint256"
        }
      ],
      "payable": false,
      "stateMutability": "view",
      "type": "function"
    },
    {
      "constant": true,
      "inputs": [
        {
          "name": "",
          "type": "uint256"
        }
      ],
      "name": "bids",
      "outputs": [
        {
          "name": "prev",
          "type": "uint256"
        },
        {
          "name": "next",
          "type": "uint256"
        },
        {
          "name": "maxVal",
          "type": "uint256"
        },
        {
          "name": "contrib",
          "type": "uint256"
        },
        {
          "name": "bonus",
          "type": "uint256"
        },
        {
          "name": "contributor",
          "type": "address"
        },
        {
          "name": "withdrawn",
          "type": "bool"
        },
        {
          "name": "redeemed",
          "type": "bool"
        }
      ],
      "payable": false,
      "stateMutability": "view",
      "type": "function"
    },
    {
      "constant": true,
      "inputs": [],
      "name": "maxBonus",
      "outputs": [
        {
          "name": "",
          "type": "uint256"
        }
      ],
      "payable": false,
      "stateMutability": "view",
      "type": "function"
    },
    {
      "constant": true,
      "inputs": [],
      "name": "lastBidID",
      "outputs": [
        {
          "name": "",
          "type": "uint256"
        }
      ],
      "payable": false,
      "stateMutability": "view",
      "type": "function"
    },
    {
      "constant": true,
      "inputs": [
        {
          "name": "_contributor",
          "type": "address"
        }
      ],
      "name": "totalContrib",
      "outputs": [
        {
          "name": "contribution",
          "type": "uint256"
        }
      ],
      "payable": false,
      "stateMutability": "view",
      "type": "function"
    },
    {
      "constant": true,
      "inputs": [],
      "name": "bonus",
      "outputs": [
        {
          "name": "b",
          "type": "uint256"
        }
      ],
      "payable": false,
      "stateMutability": "view",
      "type": "function"
    },
    {
      "constant": true,
      "inputs": [],
      "name": "startTime",
      "outputs": [
        {
          "name": "",
          "type": "uint256"
        }
      ],
      "payable": false,
      "stateMutability": "view",
      "type": "function"
    },
    {
      "constant": true,
      "inputs": [],
      "name": "finalized",
      "outputs": [
        {
          "name": "",
          "type": "bool"
        }
      ],
      "payable": false,
      "stateMutability": "view",
      "type": "function"
    },
    {
      "constant": false,
      "inputs": [
        {
          "name": "_maxVal",
          "type": "uint256"
        },
        {
          "name": "_next",
          "type": "uint256"
        }
      ],
      "name": "submitBid",
      "outputs": [],
      "payable": true,
      "stateMutability": "payable",
      "type": "function"
    },
    {
      "constant": true,
      "inputs": [
        {
          "name": "_maxVal",
          "type": "uint256"
        },
        {
          "name": "_nextStart",
          "type": "uint256"
        }
      ],
      "name": "search",
      "outputs": [
        {
          "name": "nextInsert",
          "type": "uint256"
        }
      ],
      "payable": false,
      "stateMutability": "view",
      "type": "function"
    },
    {
      "constant": false,
      "inputs": [
        {
          "name": "_maxVal",
          "type": "uint256"
        },
        {
          "name": "_next",
          "type": "uint256"
        }
      ],
      "name": "searchAndBid",
      "outputs": [],
      "payable": true,
      "stateMutability": "payable",
      "type": "function"
    },
    {
      "constant": false,
      "inputs": [
        {
          "name": "_bidID",
          "type": "uint256"
        }
      ],
      "name": "redeem",
      "outputs": [],
      "payable": false,
      "stateMutability": "nonpayable",
      "type": "function"
    },
    {
      "constant": true,
      "inputs": [],
      "name": "sumAcceptedContrib",
      "outputs": [
        {
          "name": "",
          "type": "uint256"
        }
      ],
      "payable": false,
      "stateMutability": "view",
      "type": "function"
    },
    {
      "constant": true,
      "inputs": [],
      "name": "endFullBonusTime",
      "outputs": [
        {
          "name": "",
          "type": "uint256"
        }
      ],
      "payable": false,
      "stateMutability": "view",
      "type": "function"
    },
    {
      "constant": true,
      "inputs": [],
      "name": "token",
      "outputs": [
        {
          "name": "",
          "type": "address"
        }
      ],
      "payable": false,
      "stateMutability": "view",
      "type": "function"
    },
    {
      "inputs": [
        {
          "name": "_startTime",
          "type": "uint256"
        },
        {
          "name": "_fullBonusLength",
          "type": "uint256"
        },
        {
          "name": "_partialWithdrawalLength",
          "type": "uint256"
        },
        {
          "name": "_withdrawalLockUpLength",
          "type": "uint256"
        },
        {
          "name": "_maxBonus",
          "type": "uint256"
        }
      ],
      "payable": false,
      "stateMutability": "nonpayable",
      "type": "constructor"
    },
    {
      "payable": true,
      "stateMutability": "payable",
      "type": "fallback"
    }
  ],
  "bytecode": "0x606060405260006004557fffffffffffffffffffffffffffffffffffffffffffffffffffffffffffffffff600d55341561003857600080fd5b60405160a08061190583398101604052808051906020019091908051906020019091908051906020019091908051906020019091908051906020019091905050336000806101000a81548173ffffffffffffffffffffffffffffffffffffffff021916908373ffffffffffffffffffffffffffffffffffffffff1602179055508460058190555083600554016006819055508260065401600781905550816007540160088190555080600b81905550610100604051908101604052807fffffffffffffffffffffffffffffffffffffffffffffffffffffffffffffffff81526020017fffffffffffffffffffffffffffffffffffffffffffffffffffffffffffffffff8152602001600081526020016000815260200160008152602001600073ffffffffffffffffffffffffffffffffffffffff1681526020016000151581526020016000151581525060026000808152602001908152602001600020600082015181600001556020820151816001015560408201518160020155606082015181600301556080820151816004015560a08201518160050160006101000a81548173ffffffffffffffffffffffffffffffffffffffff021916908373ffffffffffffffffffffffffffffffffffffffff16021790555060c08201518160050160146101000a81548160ff02191690831515021790555060e08201518160050160156101000a81548160ff0219169083151502179055509050506101006040519081016040528060008152602001600081526020017fffffffffffffffffffffffffffffffffffffffffffffffffffffffffffffffff81526020016000815260200160008152602001600073ffffffffffffffffffffffffffffffffffffffff16815260200160001515815260200160001515815250600260007fffffffffffffffffffffffffffffffffffffffffffffffffffffffffffffffff8152602001908152602001600020600082015181600001556020820151816001015560408201518160020155606082015181600301556080820151816004015560a08201518160050160006101000a81548173ffffffffffffffffffffffffffffffffffffffff021916908373ffffffffffffffffffffffffffffffffffffffff16021790555060c08201518160050160146101000a81548160ff02191690831515021790555060e08201518160050160156101000a81548160ff0219169083151502179055509050505050505050611535806103d06000396000f300606060405260043610610133576000357c0100000000000000000000000000000000000000000000000000000000900463ffffffff16806305261aea1461031357806312aef8c314610336578063144fa6d71461035f578063152713b3146103985780631ae9fe6a146103c15780631def6bad146103ea5780632e1a7d4d146104405780633197cbb61461046357806334f732e81461048c5780634423c5f1146104b557806354c5b6961461055157806357f196fa1461057a5780635e7c85b1146105a357806375b4d78c146105f057806378e9792514610619578063b3f05b9714610642578063b821da1b1461066f578063c68ee9cd14610690578063ce160edd146106d0578063db006a75146106f1578063dc382cbf14610714578063f0d6cc701461073d578063fc0c546a14610766575b600080341415801561014757506005544210155b8015610154575060085442105b156101a8576101a37ffffffffffffffffffffffffffffffffffffffffffffffffffffffffffffffffe7fffffffffffffffffffffffffffffffffffffffffffffffffffffffffffffffff6107bb565b610310565b6000341480156101c45750600c60009054906101000a900460ff165b1561030f57600090505b600360003373ffffffffffffffffffffffffffffffffffffffff1673ffffffffffffffffffffffffffffffffffffffff1681526020019081526020016000208054905081101561030e5760026000600360003373ffffffffffffffffffffffffffffffffffffffff1673ffffffffffffffffffffffffffffffffffffffff1681526020019081526020016000208381548110151561026857fe5b906000526020600020900154815260200190815260200160002060050160159054906101000a900460ff1615156102fe576102f9600360003373ffffffffffffffffffffffffffffffffffffffff1673ffffffffffffffffffffffffffffffffffffffff168152602001908152602001600020828154811015156102e857fe5b9060005260206000209001546109f5565b610303565b600080fd5b8060010190506101ce565b5b5b50005b341561031e57600080fd5b6103346004808035906020019091905050610c5a565b005b341561034157600080fd5b610349610e8e565b6040518082815260200191505060405180910390f35b341561036a57600080fd5b610396600480803573ffffffffffffffffffffffffffffffffffffffff16906020019091905050610e94565b005b34156103a357600080fd5b6103ab611060565b6040518082815260200191505060405180910390f35b34156103cc57600080fd5b6103d4611066565b6040518082815260200191505060405180910390f35b34156103f557600080fd5b61042a600480803573ffffffffffffffffffffffffffffffffffffffff1690602001909190803590602001909190505061106c565b6040518082815260200191505060405180910390f35b341561044b57600080fd5b610461600480803590602001909190505061109d565b005b341561046e57600080fd5b610476611213565b6040518082815260200191505060405180910390f35b341561049757600080fd5b61049f611219565b6040518082815260200191505060405180910390f35b34156104c057600080fd5b6104d6600480803590602001909190505061121f565b604051808981526020018881526020018781526020018681526020018581526020018473ffffffffffffffffffffffffffffffffffffffff1673ffffffffffffffffffffffffffffffffffffffff16815260200183151515158152602001821515151581526020019850505050505050505060405180910390f35b341561055c57600080fd5b6105646112a1565b6040518082815260200191505060405180910390f35b341561058557600080fd5b61058d6112a7565b6040518082815260200191505060405180910390f35b34156105ae57600080fd5b6105da600480803573ffffffffffffffffffffffffffffffffffffffff169060200190919050506112ad565b6040518082815260200191505060405180910390f35b34156105fb57600080fd5b610603611382565b6040518082815260200191505060405180910390f35b341561062457600080fd5b61062c6113cb565b6040518082815260200191505060405180910390f35b341561064d57600080fd5b6106556113d1565b604051808215151515815260200191505060405180910390f35b61068e60048080359060200190919080359060200190919050506107bb565b005b341561069b57600080fd5b6106ba60048080359060200190919080359060200190919050506113e4565b6040518082815260200191505060405180910390f35b6106ef600480803590602001909190803590602001909190505061146f565b005b34156106fc57600080fd5b61071260048080359060200190919050506109f5565b005b341561071f57600080fd5b610727611486565b6040518082815260200191505060405180910390f35b341561074857600080fd5b61075061148c565b6040518082815260200191505060405180910390f35b341561077157600080fd5b610779611492565b604051808273ffffffffffffffffffffffffffffffffffffffff1673ffffffffffffffffffffffffffffffffffffffff16815260200191505060405180910390f35b600080600060026000858152602001908152602001600020925082600001549150600260008381526020019081526020016000209050806002015485101580156108085750826002015485105b151561081357600080fd5b6005544210158015610826575060085442105b151561083157600080fd5b600460008154600101919050819055506004548160010181905550600454836000018190555061010060405190810160405280838152602001858152602001868152602001348152602001610884611382565b81526020013373ffffffffffffffffffffffffffffffffffffffff16815260200160001515815260200160001515815250600260006004548152602001908152602001600020600082015181600001556020820151816001015560408201518160020155606082015181600301556080820151816004015560a08201518160050160006101000a81548173ffffffffffffffffffffffffffffffffffffffff021916908373ffffffffffffffffffffffffffffffffffffffff16021790555060c08201518160050160146101000a81548160ff02191690831515021790555060e08201518160050160156101000a81548160ff021916908315150217905550905050600360003373ffffffffffffffffffffffffffffffffffffffff1673ffffffffffffffffffffffffffffffffffffffff16815260200190815260200160002080548060010182816109d791906114b8565b91600052602060002090016000600454909190915055505050505050565b60008060026000848152602001908152602001600020915060026000600d5481526020019081526020016000209050600c60009054906101000a900460ff161515610a3f57600080fd5b8160050160159054906101000a900460ff16151515610a5d57600080fd5b60018260050160156101000a81548160ff021916908315150217905550806002015482600201541180610aa5575080600201548260020154148015610aa45750600d548310155b5b15610bec57600960009054906101000a900473ffffffffffffffffffffffffffffffffffffffff1673ffffffffffffffffffffffffffffffffffffffff1663a9059cbb8360050160009054906101000a900473ffffffffffffffffffffffffffffffffffffffff16600f54633b9aca008660040154876003015402811515610b2957fe5b04866003015401600a5402811515610b3d57fe5b046000604051602001526040518363ffffffff167c0100000000000000000000000000000000000000000000000000000000028152600401808373ffffffffffffffffffffffffffffffffffffffff1673ffffffffffffffffffffffffffffffffffffffff16815260200182815260200192505050602060405180830381600087803b1515610bcb57600080fd5b6102c65a03f11515610bdc57600080fd5b5050506040518051905050610c55565b8160050160009054906101000a900473ffffffffffffffffffffffffffffffffffffffff1673ffffffffffffffffffffffffffffffffffffffff166108fc83600301549081150290604051600060405180830381858888f193505050501515610c5457600080fd5b5b505050565b6000806000806000806008544210151515610c7457600080fd5b600c60009054906101000a900460ff16151515610c9057600080fd5b600d549550600e549450600f549350600092505b8683108015610cc05750600c60009054906101000a900460ff16155b15610e70576002600087815260200190815260200160002091508160020154858360030154011015610d2557816003015485019450633b9aca008260040154836003015402811515610d0e57fe5b048260030154018401935081600001549550610e65565b6001600c60006101000a81548160ff0219169083151502179055508482600201541015610d53576000610d5b565b848260020154035b905081600301548110610d72578160030154610d74565b805b90508160050160009054906101000a900473ffffffffffffffffffffffffffffffffffffffff1673ffffffffffffffffffffffffffffffffffffffff166108fc828460030154039081150290604051600060405180830381858888f1935050505050808260030181905550816003015485019450633b9aca008260040154836003015402811515610e0157fe5b0482600301540184019350600160009054906101000a900473ffffffffffffffffffffffffffffffffffffffff1673ffffffffffffffffffffffffffffffffffffffff166108fc869081150290604051600060405180830381858888f19350505050505b826001019250610ca4565b85600d8190555084600e8190555083600f8190555050505050505050565b600a5481565b3373ffffffffffffffffffffffffffffffffffffffff166000809054906101000a900473ffffffffffffffffffffffffffffffffffffffff1673ffffffffffffffffffffffffffffffffffffffff16141515610eef57600080fd5b6000600960009054906101000a900473ffffffffffffffffffffffffffffffffffffffff1673ffffffffffffffffffffffffffffffffffffffff16141515610f3657600080fd5b80600960006101000a81548173ffffffffffffffffffffffffffffffffffffffff021916908373ffffffffffffffffffffffffffffffffffffffff160217905550600960009054906101000a900473ffffffffffffffffffffffffffffffffffffffff1673ffffffffffffffffffffffffffffffffffffffff166370a08231306000604051602001526040518263ffffffff167c0100000000000000000000000000000000000000000000000000000000028152600401808273ffffffffffffffffffffffffffffffffffffffff1673ffffffffffffffffffffffffffffffffffffffff168152602001915050602060405180830381600087803b151561103c57600080fd5b6102c65a03f1151561104d57600080fd5b50505060405180519050600a8190555050565b600f5481565b600d5481565b60036020528160005260406000208181548110151561108757fe5b9060005260206000209001600091509150505481565b6000806002600084815260200190815260200160002091508160050160009054906101000a900473ffffffffffffffffffffffffffffffffffffffff1673ffffffffffffffffffffffffffffffffffffffff163373ffffffffffffffffffffffffffffffffffffffff1614151561111357600080fd5b6007544210151561112357600080fd5b8160050160149054906101000a900460ff1615151561114157600080fd5b60018260050160146101000a81548160ff02191690831515021790555060065442106111885760065460075403426007540383600301540281151561118257fe5b0461118e565b81600301545b9050816003015481111515156111a057fe5b80826003016000828254039250508190555060038260040160008282548115156111c657fe5b04925050819055503373ffffffffffffffffffffffffffffffffffffffff166108fc829081150290604051600060405180830381858888f19350505050151561120e57600080fd5b505050565b60085481565b60075481565b60026020528060005260406000206000915090508060000154908060010154908060020154908060030154908060040154908060050160009054906101000a900473ffffffffffffffffffffffffffffffffffffffff16908060050160149054906101000a900460ff16908060050160159054906101000a900460ff16905088565b600b5481565b60045481565b600080600090505b600360008473ffffffffffffffffffffffffffffffffffffffff1673ffffffffffffffffffffffffffffffffffffffff1681526020019081526020016000208054905081101561137c5760026000600360008673ffffffffffffffffffffffffffffffffffffffff1673ffffffffffffffffffffffffffffffffffffffff1681526020019081526020016000208381548110151561134f57fe5b906000526020600020900154815260200190815260200160002060030154820191508060010190506112b5565b50919050565b600060065442101561139857600b5490506113c8565b6008544211156113ab57600090506113c8565b600654600854034260085403600b54028115156113c457fe5b0490505b90565b60055481565b600c60009054906101000a900460ff1681565b6000806000806000808694505b8315156114615760026000868152602001908152602001600020925082600001549150600260008381526020019081526020016000209050806002015488101561143d5781945061145c565b826002015488101515611456578260010154945061145b565b600193505b5b6113f1565b849550505050505092915050565b6114828261147d84846113e4565b6107bb565b5050565b600e5481565b60065481565b600960009054906101000a900473ffffffffffffffffffffffffffffffffffffffff1681565b8154818355818115116114df578183600052602060002091820191016114de91906114e4565b5b505050565b61150691905b808211156115025760008160009055506001016114ea565b5090565b905600a165627a7a7230582095d95399282dd42b817d49151ec08db35b99e0985a8a4fcf9bb1861c35527dfd0029",
  "source": "/** @title Interactive Coin Offering\r\n *  @author Clément Lesaege - <clement@lesaege.com>\r\n */\r\n\r\npragma solidity ^0.4.18;\r\n\r\nimport \"zeppelin-solidity/contracts/token/ERC20/ERC20.sol\";\r\n\r\n/** @title Interactive Coin Offering\r\n *  This contract implements the Interactive Coin Offering token sale as described in this paper:\r\n *  https://people.cs.uchicago.edu/~teutsch/papers/ico.pdf\r\n *  Modifications compared to the paper:\r\n *  -A fix amount of tokens is sold. This allows more flexibility for the distribution of the remaining tokens (rounds, team tokens which can be preallocated, non-initial sell of some cryptographic assets).\r\n *  -The pointer is only moved when the sale is over. This greatly reduces the amount of write operations and code complexity. However, at least one party must make one or multiple calls to finalize the sale.\r\n *  -Buckets are not used as they are not required and increase code complexity.\r\n *  -The bid submitter must provide the insertion spot. A search of the insertion spot is still done in the contract, but giving the search starting point greatly lowers gas consumption. The search is still required as the correct insertion spot can change before a TX is signed and its execution.\r\n *  -Automatic withdrawals are only possible at the end of the sale. This decreases code complexity and possible interactions between different parts of the code.\r\n *  -We put a full bonus, free withdrawal period at the beginning. This allows everyone to have a chance to place bids with full bonus and avoid clogging the network just after the sale starts. Note that at this moment, no information can be taken from granted as parties can withdraw freely.\r\n *  -Calling the fallback function while sending ETH place a bid with an infinite maximum valuation. This allows buyers who want to buy no matter the price not to need to use a specific interface and just send ETH. Without ETH, a call to the fallback function redeems the bids of the caller.\r\n */\r\ncontract IICO {\r\n\r\n    /* *** General *** */\r\n    address owner;       // The one setting up the contract.\r\n    address beneficiary; // The address which will get the funds.\r\n\r\n    /* *** Bid *** */\r\n    uint constant HEAD = 0;            // Minimum value used for both the maxVal and bidID of the head of the linked list.\r\n    uint constant TAIL = uint(-1);     // Maximum value used for both the maxVal and bidID of the tail of the linked list.\r\n    uint constant INFINITY = uint(-2); // A value so high that a bid using it is guaranteed to succeed. Still lower than TAIL to be placed before TAIL.\r\n    // A bid to buy tokens as long as the personal maximum valuation is not exceeded.\r\n    // Bids are in a sorted doubly linked list.\r\n    // They are sorted in ascending order by (maxVal,bidID) where bidID is the ID and key of the bid in the mapping.\r\n    // The list contains two artificial bids HEAD and TAIL having respectively the minimum and maximum bidID and maxVal.\r\n    struct Bid {\r\n        /* *** Linked List Members *** */\r\n        uint prev;            // bidID of the previous element.\r\n        uint next;            // bidID of the next element.\r\n        /* ***     Bid Members     *** */\r\n        uint maxVal;          // Maximum valuation in wei beyond which the contributor prefers refund.\r\n        uint contrib;         // Contribution in wei.\r\n        uint bonus;           // The bonus expressed in 1/BONUS_DIVISOR.\r\n        address contributor;  // The contributor which placed the bid.\r\n        bool withdrawn;       // True if the bid has been withdrawn.\r\n        bool redeemed;        // True if the ETH or tokens has been redeemed.\r\n    }\r\n    mapping (uint => Bid) public bids; // Map bidID to bid.\r\n    mapping (address => uint[]) public contributorBidIDs; // Map contributor to a list of its bid ID.\r\n    uint public lastBidID = 0; // The last bidID not accounting TAIL.\r\n\r\n    /* *** Sale parameters *** */\r\n    uint public startTime;                      // When the sale starts.\r\n    uint public endFullBonusTime;               // When the full bonus ends.\r\n    uint public withdrawalLockTime;             // When the contributors can't withdraw their bids anymore.\r\n    uint public endTime;                        // When the sale ends.\r\n    ERC20 public token;                         // The token which is sold.\r\n    uint public tokensForSale;                  // The amount of tokens which will be sold.\r\n    uint public maxBonus;                       // The maximum bonus expressed in 1/BONUS_DIVISOR.\r\n    uint constant BONUS_DIVISOR = 1E9;          // The quantity we need to divide by to normalize the bonus.\r\n\r\n    /* *** Finalization variables *** */\r\n    bool public finalized;                 // True when the cutting bid has been found. The following variables are final only after finalized==true.\r\n    uint public cutOffBidID = TAIL;        // The first accepted bid. All bids after it are accepted.\r\n    uint public sumAcceptedContrib;        // The sum of accepted contributions.\r\n    uint public sumAcceptedVirtualContrib; // The sum of virtual (taking into account bonuses) contributions.\r\n\r\n    modifier onlyOwner{ require(owner == msg.sender); _; }\r\n\r\n    /* *** Functions Modifying the state *** */\r\n\r\n    /** @dev Constructor. First contract set up (tokens will also need to be transfered to the contract and then setToken to be called to finish the setup).\r\n     *  @param _startTime Time the sale will start in Unix Timestamp.\r\n     *  @param _fullBonusLength Amount of seconds the sale lasts in the full bonus period.\r\n     *  @param _partialWithdrawalLength Amount of seconds the sale lasts in the partial withdrawal period.\r\n     *  @param _withdrawalLockUpLength Amount of seconds the sale lasts in the withdrawal lockup period.\r\n     *  @param _maxBonus The maximum bonus. Will be normalized by BONUS_DIVISOR. For example for a 20% bonus, _maxBonus must be 0.2 * BONUS_DIVISOR.\r\n     */\r\n    function IICO(uint _startTime, uint _fullBonusLength, uint _partialWithdrawalLength, uint _withdrawalLockUpLength, uint _maxBonus) public {\r\n        owner = msg.sender;\r\n        startTime = _startTime;\r\n        endFullBonusTime = startTime + _fullBonusLength;\r\n        withdrawalLockTime = endFullBonusTime + _partialWithdrawalLength;\r\n        endTime = withdrawalLockTime + _withdrawalLockUpLength;\r\n        maxBonus = _maxBonus;\r\n\r\n        // Add the virtual bids. This simplifies other functions.\r\n        bids[HEAD] = Bid({\r\n            prev: TAIL,\r\n            next: TAIL,\r\n            maxVal: HEAD,\r\n            contrib: 0,\r\n            bonus: 0,\r\n            contributor: 0x0,\r\n            withdrawn: false,\r\n            redeemed: false\r\n        });\r\n        bids[TAIL] = Bid({\r\n            prev: HEAD,\r\n            next: HEAD,\r\n            maxVal: TAIL,\r\n            contrib: 0,\r\n            bonus: 0,\r\n            contributor: 0x0,\r\n            withdrawn: false,\r\n            redeemed: false\r\n        });\r\n    }\r\n\r\n    /** @dev Set the token. Must only be called after the IICO contract receive the tokens to be sold.\r\n     *  @param _token The token to be sold.\r\n     */\r\n    function setToken(ERC20 _token) public onlyOwner {\r\n        require(address(token) == 0x0);\r\n\r\n        token = _token;\r\n        tokensForSale = token.balanceOf(this);\r\n    }\r\n\r\n    /** @dev Submit a bid. The caller must give the exact position the bid must be inserted in the list.\r\n     *  In practice use searchAndBid to avoid the position being incorrect due a new bid being inserted changing the position the bid must be inserted.\r\n     *  @param _maxVal The maximum valuation given by the contributor. If the amount raised is higher, the bid is cancelled and the contributor refunded because it prefers refund instead of this level of dilution. To buy no matter what, use INFINITY.\r\n     *  @param _next The bidID of next bid of the bid which will inserted.\r\n     */\r\n    function submitBid(uint _maxVal, uint _next) public payable {\r\n        Bid storage nextBid = bids[_next];\r\n        uint prev = nextBid.prev;\r\n        Bid storage prevBid = bids[prev];\r\n        require(_maxVal >= prevBid.maxVal && _maxVal < nextBid.maxVal); // The new bid maxVal is higher than the previous and strictly lower than the next.\r\n        require(now >= startTime && now < endTime); // Check the bids are open.\r\n\r\n        ++lastBidID; // Increment the lastBidID. It will be the one of the bid which will be inserted.\r\n        // Update the pointers of neighboring bids.\r\n        prevBid.next = lastBidID;\r\n        nextBid.prev = lastBidID;\r\n\r\n        // Insert the bid.\r\n        bids[lastBidID] = Bid({\r\n            prev: prev,\r\n            next: _next,\r\n            maxVal: _maxVal,\r\n            contrib: msg.value,\r\n            bonus: bonus(),\r\n            contributor: msg.sender,\r\n            withdrawn: false,\r\n            redeemed: false\r\n        });\r\n\r\n        // Add the bid to the list of bids by this contributor.\r\n        contributorBidIDs[msg.sender].push(lastBidID);\r\n    }\r\n\r\n\r\n    /** @dev Search the correct insertion spot and submit a bid.\r\n     *  This function is O(n), where n is the amount of bids between the initial search position and the insertion position.\r\n     *  The UI must first call search to find the best point to start the search and consume the least amount of gas.\r\n     *  Using this function instead of calling submitBid directly prevents it to fail in the case that new bids would be added before the transaction is executed.\r\n     *  @param _maxVal The maximum valuation given by the contributor. If the amount raised is higher, the bid is cancelled and the contributor refunded because it prefers refund instead of this level of dilution. To buy no matter what, use INFINITY.\r\n     *  @param _next The bidID of next bid of the bid which will inserted.\r\n     */\r\n    function searchAndBid(uint _maxVal, uint _next) public payable {\r\n        submitBid(_maxVal, search(_maxVal,_next));\r\n    }\r\n\r\n    /** @dev Withdraw a bid. Can only be called before the end of the withdrawal lock.\r\n     *  Withdrawing a bid divides the bonus by 3.\r\n     *  For the automatic withdrawal, use the redeem function.\r\n     *  @param _bidID ID of the bid to withdraw.\r\n     */\r\n    function withdraw(uint _bidID) public {\r\n        Bid storage bid = bids[_bidID];\r\n        require(msg.sender == bid.contributor);\r\n        require(now < withdrawalLockTime);\r\n        require(!bid.withdrawn);\r\n\r\n        bid.withdrawn = true;\r\n\r\n        // Before endFullBonusTime, everything is refunded. Otherwise an amount decreasing linearly from endFullBonusTime to withdrawalLockTime.\r\n        uint refund = (now < endFullBonusTime) ? bid.contrib : (bid.contrib * (withdrawalLockTime - now)) / (withdrawalLockTime - endFullBonusTime);\r\n        assert(refund <= bid.contrib); // Make sure that we don't refund more than the contribution. Would a bug arise, we prefer blocking withdrawal than letting someone steal money.\r\n        bid.contrib -= refund;\r\n        bid.bonus /= 3; // Divide the bonus by 3.\r\n\r\n        msg.sender.transfer(refund);\r\n    }\r\n\r\n    /** @dev Finalize by finding the cut-off bid.\r\n     *  Since the amount of bids is not bounded, this function may have to be called multiple times.\r\n     *  The function is in O(min(n,_maxIt)) where n is the amount of bids. In total it will perform O(n) computations, possibly in multiple calls.\r\n     *  Each call only has a O(1) storage write operations.\r\n     *  @param _maxIt The maximum amount of bids to go through. This value must be set in order to not exceed the gas limit.\r\n     */\r\n    function finalize(uint _maxIt) public {\r\n        require(now >= endTime);\r\n        require(!finalized);\r\n\r\n        // Make local copies of the finalization variables in order to avoid modifying storage in order to save gas.\r\n        uint localCutOffBidID = cutOffBidID;\r\n        uint localSumAcceptedContrib = sumAcceptedContrib;\r\n        uint localSumAcceptedVirtualContrib = sumAcceptedVirtualContrib;\r\n\r\n        // Search for the cut-off while counting the contributions.\r\n        for (uint it = 0; it < _maxIt && !finalized; ++it) {\r\n            Bid storage bid = bids[localCutOffBidID];\r\n            if (bid.contrib+localSumAcceptedContrib < bid.maxVal) { // We haven't found the cut-off yet.\r\n                localSumAcceptedContrib        += bid.contrib;\r\n                localSumAcceptedVirtualContrib += bid.contrib + (bid.contrib * bid.bonus) / BONUS_DIVISOR;\r\n                localCutOffBidID = bid.prev; // Go to previous bid.\r\n            } else { // We found the cut-off. This bid will be taken partially.\r\n                finalized = true;\r\n                uint contribCutOff = bid.maxVal >= localSumAcceptedContrib ? bid.maxVal - localSumAcceptedContrib : 0; // The contribution of the cut-off bid. The amount which remains to go to the maximum valuation of the cut-off bid if any.\r\n                contribCutOff = contribCutOff < bid.contrib ? contribCutOff : bid.contrib; // The contribution can be at max the one given by the contributor. This line should not be required but is added as an extra security measure.\r\n                bid.contributor.send(bid.contrib-contribCutOff); // Send the non-accepted part. Use of send in order not to block in case the contributor fallback would revert.\r\n                bid.contrib = contribCutOff; // Update the contribution value.\r\n                localSumAcceptedContrib += bid.contrib;\r\n                localSumAcceptedVirtualContrib += bid.contrib + (bid.contrib * bid.bonus) / BONUS_DIVISOR;\r\n                beneficiary.send(localSumAcceptedContrib); // Use of send in order not to allow the beneficiary to block the finalization.\r\n            }\r\n        }\r\n\r\n        // Update storage.\r\n        cutOffBidID = localCutOffBidID;\r\n        sumAcceptedContrib = localSumAcceptedContrib;\r\n        sumAcceptedVirtualContrib = localSumAcceptedVirtualContrib;\r\n    }\r\n\r\n    /** @dev Redeem a bid. If the bid is accepted, send the tokens, otherwise send the ethers back.\r\n     *  Note that anyone can call this function, not only the party which made the bid.\r\n     *  @param _bidID ID of the bid to withdraw.\r\n     */\r\n    function redeem(uint _bidID) public {\r\n        Bid storage bid = bids[_bidID];\r\n        Bid storage cutOffBid = bids[cutOffBidID];\r\n        require(finalized);\r\n        require(!bid.redeemed);\r\n\r\n        bid.redeemed=true;\r\n        if (bid.maxVal > cutOffBid.maxVal || (bid.maxVal == cutOffBid.maxVal && _bidID >= cutOffBidID)) // Give tokens if the bid is accepted.\r\n            token.transfer(bid.contributor, (tokensForSale * (bid.contrib + (bid.contrib * bid.bonus) / BONUS_DIVISOR)) / sumAcceptedVirtualContrib);\r\n        else                                                                                      // Reimburse otherwise.\r\n            bid.contributor.transfer(bid.contrib);\r\n    }\r\n\r\n    /** @dev Fallback. Make a bid if ETH are sent. Redeem all the bids of the contributor otherwise.\r\n     *  This allows users to bid and get their tokens back using only send operations.\r\n     */\r\n    function () public payable {\r\n        if (msg.value != 0 && now >= startTime && now < endTime) // Make some bid with an infinite maxVal if some ETH were sent.\r\n            submitBid(INFINITY,TAIL);\r\n        else if (msg.value == 0 && finalized)                    // Redeem all the non-already redeemed bids if no ETH were sent.\r\n            for (uint i = 0; i < contributorBidIDs[msg.sender].length; ++i)\r\n                if (!bids[contributorBidIDs[msg.sender][i]].redeemed)\r\n                    redeem(contributorBidIDs[msg.sender][i]);\r\n        else                                                     // Otherwise no actions are possible.\r\n            revert();\r\n    }\r\n\r\n    /* *** Constant and View *** */\r\n\r\n    /** @dev Search for the correct insertion spot of a bid.\r\n     *  This function is O(n), where n is the amount of bids between the initial search position and the insertion position.\r\n     *  @param _maxVal The maximum valuation given by the contributor. Or INFINITY if no maximum valuation is given.\r\n     *  @param _nextStart The bidID of next bid in the initial position to start the search.\r\n     *  @return nextInsert The bidID of next bid the bid must be inserted.\r\n     */\r\n    function search(uint _maxVal, uint _nextStart) constant public returns(uint nextInsert) {\r\n        uint next = _nextStart;\r\n        bool found;\r\n\r\n        while(!found) { // While we aren't at the insertion point.\r\n            Bid storage nextBid = bids[next];\r\n            uint prev = nextBid.prev;\r\n            Bid storage prevBid = bids[prev];\r\n\r\n            if (_maxVal < prevBid.maxVal)       // It should be inserted before.\r\n                next = prev;\r\n            else if (_maxVal >= nextBid.maxVal) // It should be inserted after. The second value we sort by is bidID. Those are increasing, thus if the next bid is of same maxVal, we should insert after.\r\n                next = nextBid.next;\r\n            else                                // We found out the insertion point.\r\n                found = true;\r\n        }\r\n\r\n        return next;\r\n    }\r\n\r\n    /** @dev Return the current bonus. The bonus only changes in 1/BONUS_DIVISOR increments.\r\n     *  @return b The bonus expressed in 1/BONUS_DIVISOR.\r\n     */\r\n    function bonus() public constant returns(uint b) {\r\n        if (now < endFullBonusTime) // Full bonus.\r\n            return maxBonus;\r\n        else if (now > endTime)     // Assume no bonus after end.\r\n            return 0;\r\n        else                        // Compute the bonus decreasing linearly from endFullBonusTime to endTime.\r\n            return (maxBonus * (endTime - now)) / (endTime - endFullBonusTime);\r\n    }\r\n\r\n    /** @dev Get the total contribution of an address.\r\n     *  It can be used for KYC threshold.\r\n     *  The function is O(n) where n is the amount of bids by a the contributor.\r\n     *  This means the contributor can make totalContrib(contributor) reverts due to out of gas on purpose.\r\n     *  @param _contributor The contributor the contribution will be returned.\r\n     *  @return contribution The total contribution of the contributor.\r\n     */\r\n    function totalContrib(address _contributor) public constant returns (uint contribution) {\r\n        for (uint i = 0; i < contributorBidIDs[_contributor].length; ++i)\r\n            contribution += bids[contributorBidIDs[_contributor][i]].contrib;\r\n    }\r\n}\r\n",
  "sourcePath": "C:\\Users\\Clementine\\GitHub\\openiico-contract\\contracts\\IICO.sol",
  "compiler": {
    "name": "solc",
    "version": "0.4.18+commit.9cf6e910.Emscripten.clang"
  },
  "schemaVersion": "1.0.1",
  "updatedAt": "2018-04-16T22:34:06.069Z"
}